{
  "contractName": "Casino",
  "abi": [
    {
      "constant": true,
      "inputs": [],
      "name": "creator",
      "outputs": [
        {
          "name": "",
          "type": "address"
        }
      ],
      "payable": false,
      "stateMutability": "view",
      "type": "function"
    },
    {
      "constant": true,
      "inputs": [
        {
          "name": "",
          "type": "address"
        }
      ],
      "name": "operators",
      "outputs": [
        {
          "name": "index",
          "type": "uint256"
        },
        {
          "name": "account",
          "type": "address"
        },
        {
          "name": "balance",
          "type": "uint256"
        }
      ],
      "payable": false,
      "stateMutability": "view",
      "type": "function"
    },
    {
      "constant": true,
      "inputs": [],
      "name": "initialized",
      "outputs": [
        {
          "name": "",
          "type": "bool"
        }
      ],
      "payable": false,
      "stateMutability": "view",
      "type": "function"
    },
    {
      "constant": true,
      "inputs": [],
      "name": "rouletteTable",
      "outputs": [
        {
          "name": "",
          "type": "address"
        }
      ],
      "payable": false,
      "stateMutability": "view",
      "type": "function"
    },
    {
      "constant": true,
      "inputs": [
        {
          "name": "",
          "type": "uint256"
        }
      ],
      "name": "operatorAccounts",
      "outputs": [
        {
          "name": "",
          "type": "address"
        }
      ],
      "payable": false,
      "stateMutability": "view",
      "type": "function"
    },
    {
      "constant": true,
      "inputs": [],
      "name": "totalOperatorSupply",
      "outputs": [
        {
          "name": "",
          "type": "uint256"
        }
      ],
      "payable": false,
      "stateMutability": "view",
      "type": "function"
    },
    {
      "inputs": [],
      "payable": false,
      "stateMutability": "nonpayable",
      "type": "constructor"
    },
    {
      "payable": true,
      "stateMutability": "payable",
      "type": "fallback"
    },
    {
      "constant": true,
      "inputs": [
        {
          "name": "_account",
          "type": "address"
        }
      ],
      "name": "operatorOf",
      "outputs": [
        {
          "name": "index",
          "type": "uint256"
        },
        {
          "name": "account",
          "type": "address"
        },
        {
          "name": "balance",
          "type": "uint256"
        }
      ],
      "payable": false,
      "stateMutability": "view",
      "type": "function"
    },
    {
      "constant": false,
      "inputs": [
        {
          "name": "_rouletteTable",
          "type": "address"
        }
      ],
      "name": "initialize",
      "outputs": [
        {
          "name": "",
          "type": "bool"
        }
      ],
      "payable": false,
      "stateMutability": "nonpayable",
      "type": "function"
    },
    {
      "constant": false,
      "inputs": [],
      "name": "liquidate",
      "outputs": [
        {
          "name": "",
          "type": "bool"
        }
      ],
      "payable": false,
      "stateMutability": "nonpayable",
      "type": "function"
    },
    {
      "constant": false,
      "inputs": [
        {
          "name": "_amount",
          "type": "uint256"
        }
      ],
      "name": "processLoss",
      "outputs": [
        {
          "name": "",
          "type": "bool"
        }
      ],
      "payable": false,
      "stateMutability": "nonpayable",
      "type": "function"
    },
    {
      "constant": false,
      "inputs": [],
      "name": "processProfit",
      "outputs": [
        {
          "name": "",
          "type": "bool"
        }
      ],
      "payable": true,
      "stateMutability": "payable",
      "type": "function"
    },
    {
      "constant": false,
      "inputs": [
        {
          "name": "_amount",
          "type": "uint256"
        }
      ],
      "name": "withdraw",
      "outputs": [
        {
          "name": "",
          "type": "bool"
        }
      ],
      "payable": false,
      "stateMutability": "nonpayable",
      "type": "function"
    }
  ],
  "bytecode": "0x608060405234801561001057600080fd5b5033600160006101000a81548173ffffffffffffffffffffffffffffffffffffffff021916908373ffffffffffffffffffffffffffffffffffffffff1602179055506110e6806100616000396000f3006080604052600436106100ba576000357c0100000000000000000000000000000000000000000000000000000000900463ffffffff16806302d05d3f1461012e57806313e7c9d814610185578063158ef93e1461021657806328a07025146102455780632e1a7d4d146102745780635f29c554146102b9578063636f35d3146103105780638640dbff146103a157806386abc1ae1461040e578063a060ea9914610430578063c4d66de81461045b578063de6a3738146104b6575b600260009054906101000a900473ffffffffffffffffffffffffffffffffffffffff1673ffffffffffffffffffffffffffffffffffffffff163373ffffffffffffffffffffffffffffffffffffffff161415151561011757600080fd5b61012133346104fb565b151561012c57600080fd5b005b34801561013a57600080fd5b5061014361063d565b604051808273ffffffffffffffffffffffffffffffffffffffff1673ffffffffffffffffffffffffffffffffffffffff16815260200191505060405180910390f35b34801561019157600080fd5b506101c6600480360381019080803573ffffffffffffffffffffffffffffffffffffffff169060200190929190505050610663565b604051808481526020018373ffffffffffffffffffffffffffffffffffffffff1673ffffffffffffffffffffffffffffffffffffffff168152602001828152602001935050505060405180910390f35b34801561022257600080fd5b5061022b6106ad565b604051808215151515815260200191505060405180910390f35b34801561025157600080fd5b5061025a6106c0565b604051808215151515815260200191505060405180910390f35b34801561028057600080fd5b5061029f6004803603810190808035906020019092919050505061076b565b604051808215151515815260200191505060405180910390f35b3480156102c557600080fd5b506102ce610845565b604051808273ffffffffffffffffffffffffffffffffffffffff1673ffffffffffffffffffffffffffffffffffffffff16815260200191505060405180910390f35b34801561031c57600080fd5b50610351600480360381019080803573ffffffffffffffffffffffffffffffffffffffff16906020019092919050505061086b565b604051808481526020018373ffffffffffffffffffffffffffffffffffffffff1673ffffffffffffffffffffffffffffffffffffffff168152602001828152602001935050505060405180910390f35b3480156103ad57600080fd5b506103cc600480360381019080803590602001909291905050506108ef565b604051808273ffffffffffffffffffffffffffffffffffffffff1673ffffffffffffffffffffffffffffffffffffffff16815260200191505060405180910390f35b610416610922565b604051808215151515815260200191505060405180910390f35b34801561043c57600080fd5b50610445610a5f565b6040518082815260200191505060405180910390f35b34801561046757600080fd5b5061049c600480360381019080803573ffffffffffffffffffffffffffffffffffffffff169060200190929190505050610a65565b604051808215151515815260200191505060405180910390f35b3480156104c257600080fd5b506104e160048036038101908080359060200190929190505050610c00565b604051808215151515815260200191505060405180910390f35b60008060008314156105105760019150610636565b82600360008282540192505081905550600460008573ffffffffffffffffffffffffffffffffffffffff1673ffffffffffffffffffffffffffffffffffffffff1681526020019081526020016000209050838160010160006101000a81548173ffffffffffffffffffffffffffffffffffffffff021916908373ffffffffffffffffffffffffffffffffffffffff16021790555082816002016000828254019250508190555082816002015414156106315760008081548092919060010191905055816000018190555083600560008360000154815260200190815260200160002060006101000a81548173ffffffffffffffffffffffffffffffffffffffff021916908373ffffffffffffffffffffffffffffffffffffffff1602179055505b600191505b5092915050565b600160009054906101000a900473ffffffffffffffffffffffffffffffffffffffff1681565b60046020528060005260406000206000915090508060000154908060010160009054906101000a900473ffffffffffffffffffffffffffffffffffffffff16908060020154905083565b600260149054906101000a900460ff1681565b6000806000600460003373ffffffffffffffffffffffffffffffffffffffff1673ffffffffffffffffffffffffffffffffffffffff1681526020019081526020016000209150816002015490506107173382610dc5565b151561072257600080fd5b3373ffffffffffffffffffffffffffffffffffffffff166108fc829081150290604051600060405180830381858888f19350505050151561076257600080fd5b60019250505090565b600080600460003373ffffffffffffffffffffffffffffffffffffffff1673ffffffffffffffffffffffffffffffffffffffff1681526020019081526020016000209050828160020154101515156107c257600080fd5b6107f08160010160009054906101000a900473ffffffffffffffffffffffffffffffffffffffff1684610dc5565b15156107fb57600080fd5b3373ffffffffffffffffffffffffffffffffffffffff166108fc849081150290604051600060405180830381858888f19350505050151561083b57600080fd5b6001915050919050565b600260009054906101000a900473ffffffffffffffffffffffffffffffffffffffff1681565b600080600080600460008673ffffffffffffffffffffffffffffffffffffffff1673ffffffffffffffffffffffffffffffffffffffff168152602001908152602001600020905080600001548160010160009054906101000a900473ffffffffffffffffffffffffffffffffffffffff168260020154935093509350509193909250565b60056020528060005260406000206000915054906101000a900473ffffffffffffffffffffffffffffffffffffffff1681565b6000806000600260149054906101000a900460ff16151561094257600080fd5b600260009054906101000a900473ffffffffffffffffffffffffffffffffffffffff1673ffffffffffffffffffffffffffffffffffffffff163373ffffffffffffffffffffffffffffffffffffffff1614151561099e57600080fd5b600091505b600054821015610a5657600460006005600085815260200190815260200160002060009054906101000a900473ffffffffffffffffffffffffffffffffffffffff1673ffffffffffffffffffffffffffffffffffffffff1673ffffffffffffffffffffffffffffffffffffffff1681526020019081526020016000209050610a3e336003548360020154811515610a3657fe5b0434026104fb565b1515610a4957600080fd5b81806001019250506109a3565b60019250505090565b60035481565b6000600160009054906101000a900473ffffffffffffffffffffffffffffffffffffffff1673ffffffffffffffffffffffffffffffffffffffff163373ffffffffffffffffffffffffffffffffffffffff16141515610ac357600080fd5b600260149054906101000a900460ff16158015610b2e5750600073ffffffffffffffffffffffffffffffffffffffff16600260009054906101000a900473ffffffffffffffffffffffffffffffffffffffff1673ffffffffffffffffffffffffffffffffffffffff16145b15610b905781600260006101000a81548173ffffffffffffffffffffffffffffffffffffffff021916908373ffffffffffffffffffffffffffffffffffffffff1602179055506001600260146101000a81548160ff0219169083151502179055505b600260149054906101000a900460ff168015610bf957508173ffffffffffffffffffffffffffffffffffffffff16600260009054906101000a900473ffffffffffffffffffffffffffffffffffffffff1673ffffffffffffffffffffffffffffffffffffffff16145b9050919050565b6000806000600260149054906101000a900460ff161515610c2057600080fd5b600260009054906101000a900473ffffffffffffffffffffffffffffffffffffffff1673ffffffffffffffffffffffffffffffffffffffff163373ffffffffffffffffffffffffffffffffffffffff16141515610c7c57600080fd5b600091505b600054821015610d5857600460006005600085815260200190815260200160002060009054906101000a900473ffffffffffffffffffffffffffffffffffffffff1673ffffffffffffffffffffffffffffffffffffffff1673ffffffffffffffffffffffffffffffffffffffff1681526020019081526020016000209050610d408160010160009054906101000a900473ffffffffffffffffffffffffffffffffffffffff166003548360020154811515610d3857fe5b048602610dc5565b1515610d4b57600080fd5b8180600101925050610c81565b600260009054906101000a900473ffffffffffffffffffffffffffffffffffffffff1673ffffffffffffffffffffffffffffffffffffffff166108fc859081150290604051600060405180830381858888f193505050501515610dba57600080fd5b600192505050919050565b6000806000806000851415610ddd57600193506110b1565b84600360008282540392505081905550600460008773ffffffffffffffffffffffffffffffffffffffff1673ffffffffffffffffffffffffffffffffffffffff1681526020019081526020016000209250858360010160006101000a81548173ffffffffffffffffffffffffffffffffffffffff021916908373ffffffffffffffffffffffffffffffffffffffff1602179055508483600201600082825403925050819055506000836002015414156110ac576000808154600190039190508190559150818360000154141515610f8657600460006005600085815260200190815260200160002060009054906101000a900473ffffffffffffffffffffffffffffffffffffffff1673ffffffffffffffffffffffffffffffffffffffff1673ffffffffffffffffffffffffffffffffffffffff16815260200190815260200160002090508260000154816000018190555085600560008560000154815260200190815260200160002060006101000a81548173ffffffffffffffffffffffffffffffffffffffff021916908373ffffffffffffffffffffffffffffffffffffffff1602179055505b60006005600084815260200190815260200160002060006101000a81548173ffffffffffffffffffffffffffffffffffffffff021916908373ffffffffffffffffffffffffffffffffffffffff16021790555060606040519081016040528060008152602001600073ffffffffffffffffffffffffffffffffffffffff1681526020016000815250600460008873ffffffffffffffffffffffffffffffffffffffff1673ffffffffffffffffffffffffffffffffffffffff1681526020019081526020016000206000820151816000015560208201518160010160006101000a81548173ffffffffffffffffffffffffffffffffffffffff021916908373ffffffffffffffffffffffffffffffffffffffff160217905550604082015181600201559050505b600193505b505050929150505600a165627a7a72305820f46e2ea089bdce6091d56a96df0b9864477d18df27ae3aefdada10ecab8aec480029",
  "source": "pragma solidity ^0.4.2;\n\nimport \"./RouletteTable.sol\";\n\ncontract Casino {\n\n    struct Operator {\n        uint256 index;\n        address account;\n        uint256 balance;\n    }\n\n    uint256 private operatorCount;\n\n    address public creator;\n\n    address public rouletteTable;\n\n    bool public initialized;\n\n    uint256 public totalOperatorSupply;\n\n    mapping(address => Operator) public operators;\n\n    mapping(uint256 => address) public operatorAccounts;\n\n    modifier notRouletteTable() {\n        require(msg.sender != rouletteTable);\n        _;\n    }\n\n    modifier onlyCreator() {\n        require(msg.sender == creator);\n        _;\n    }\n\n    modifier onlyIfInitialized() {\n        require(initialized);\n        _;\n    }\n\n    modifier onlyRouletteTable() {\n        require(msg.sender == rouletteTable);\n        _;\n    }\n\n    constructor() public {\n        creator = msg.sender;\n    }\n\n    function() public payable\n    notRouletteTable\n    {\n        require(increaseBalance(msg.sender, msg.value));\n    }\n\n    function operatorOf(address _account) public view\n    returns (uint256 index, address account, uint256 balance) {\n        Operator storage operator = operators[_account];\n        return (operator.index, operator.account, operator.balance);\n    }\n\n    function initialize(address _rouletteTable) public\n    onlyCreator\n    returns (bool){\n        if (!initialized && rouletteTable == address(0)) {\n            rouletteTable = _rouletteTable;\n            initialized = true;\n        }\n        return initialized && rouletteTable == _rouletteTable;\n    }\n\n    function liquidate() public\n    returns (bool) {\n        Operator storage operator = operators[msg.sender];\n        uint256 fundsToLiquidate = operator.balance;\n        require(decreaseBalance(msg.sender, fundsToLiquidate));\n        require(msg.sender.send(fundsToLiquidate));\n        return true;\n    }\n\n    function processLoss(uint256 _amount) public\n    onlyIfInitialized\n    onlyRouletteTable\n    returns (bool){\n        for (uint256 index = 0; index < operatorCount; index++) {\n            Operator storage operator = operators[operatorAccounts[index]];\n            require(decreaseBalance(operator.account, _amount * (operator.balance / totalOperatorSupply)));\n        }\n        require(rouletteTable.send(_amount));\n        return true;\n    }\n\n    function processProfit() payable public\n    onlyIfInitialized\n    onlyRouletteTable\n    returns (bool){\n        for (uint256 index = 0; index < operatorCount; index++) {\n            Operator storage operator = operators[operatorAccounts[index]];\n            require(increaseBalance(msg.sender, msg.value * (operator.balance / totalOperatorSupply)));\n        }\n        return true;\n    }\n\n    function withdraw(uint256 _amount) public\n    returns (bool) {\n        Operator storage operator = operators[msg.sender];\n        require(operator.balance >= _amount);\n        require(decreaseBalance(operator.account, _amount));\n        require(msg.sender.send(_amount));\n        return true;\n    }\n\n    function decreaseBalance(address _account, uint256 _amount) private\n    returns (bool) {\n        if (_amount == 0) return true;\n        totalOperatorSupply -= _amount;\n        Operator storage operator = operators[_account];\n        operator.account = _account;\n        operator.balance -= _amount;\n        if (operator.balance == 0) {\n            uint256 lastIndex = --operatorCount;\n            if (operator.index != lastIndex) {\n                Operator storage lastOperator = operators[operatorAccounts[lastIndex]];\n                lastOperator.index = operator.index;\n                operatorAccounts[operator.index] = _account;\n            }\n            operatorAccounts[lastIndex] = address(0);\n            operators[_account] = Operator(0, address(0), 0);\n        }\n        return true;\n    }\n\n    function increaseBalance(address _account, uint256 _amount) private\n    returns (bool) {\n        if (_amount == 0) return true;\n        totalOperatorSupply += _amount;\n        Operator storage operator = operators[_account];\n        operator.account = _account;\n        operator.balance += _amount;\n        if (operator.balance == _amount) {\n            operator.index = operatorCount++;\n            operatorAccounts[operator.index] = _account;\n        }\n        return true;\n    }\n}",
  "sourcePath": "/app/contracts/Casino.sol",
  "compiler": {
    "name": "solc",
    "version": "0.4.24+commit.e67f0147.Emscripten.clang"
  },
  "schemaVersion": "2.0.1",
  "updatedAt": "2018-08-17T23:43:29.972Z"
}