{
  "contractName": "RouletteDealer",
  "abi": [
    {
      "constant": true,
      "inputs": [],
      "name": "creator",
      "outputs": [
        {
          "name": "",
          "type": "address"
        }
      ],
      "payable": false,
      "stateMutability": "view",
      "type": "function"
    },
    {
      "constant": true,
      "inputs": [],
      "name": "initialized",
      "outputs": [
        {
          "name": "",
          "type": "bool"
        }
      ],
      "payable": false,
      "stateMutability": "view",
      "type": "function"
    },
    {
      "constant": true,
      "inputs": [],
      "name": "rouletteTable",
      "outputs": [
        {
          "name": "",
          "type": "address"
        }
      ],
      "payable": false,
      "stateMutability": "view",
      "type": "function"
    },
    {
      "inputs": [],
      "payable": false,
      "stateMutability": "nonpayable",
      "type": "constructor"
    },
    {
      "payable": false,
      "stateMutability": "nonpayable",
      "type": "fallback"
    },
    {
      "constant": false,
      "inputs": [
        {
          "name": "_rouletteTable",
          "type": "address"
        }
      ],
      "name": "initialize",
      "outputs": [
        {
          "name": "",
          "type": "bool"
        }
      ],
      "payable": false,
      "stateMutability": "nonpayable",
      "type": "function"
    },
    {
      "constant": false,
      "inputs": [],
      "name": "work",
      "outputs": [
        {
          "name": "",
          "type": "bool"
        }
      ],
      "payable": false,
      "stateMutability": "nonpayable",
      "type": "function"
    }
  ],
  "bytecode": "0x608060405234801561001057600080fd5b5033600160006101000a81548173ffffffffffffffffffffffffffffffffffffffff021916908373ffffffffffffffffffffffffffffffffffffffff16021790555061091d806100616000396000f30060806040526004361061006d576000357c0100000000000000000000000000000000000000000000000000000000900463ffffffff16806302d05d3f1461007f578063158ef93e146100d6578063322e9f04146101055780635f29c55414610134578063c4d66de81461018b575b34801561007957600080fd5b50600080fd5b34801561008b57600080fd5b506100946101e6565b604051808273ffffffffffffffffffffffffffffffffffffffff1673ffffffffffffffffffffffffffffffffffffffff16815260200191505060405180910390f35b3480156100e257600080fd5b506100eb61020c565b604051808215151515815260200191505060405180910390f35b34801561011157600080fd5b5061011a61021f565b604051808215151515815260200191505060405180910390f35b34801561014057600080fd5b50610149610730565b604051808273ffffffffffffffffffffffffffffffffffffffff1673ffffffffffffffffffffffffffffffffffffffff16815260200191505060405180910390f35b34801561019757600080fd5b506101cc600480360381019080803573ffffffffffffffffffffffffffffffffffffffff169060200190929190505050610756565b604051808215151515815260200191505060405180910390f35b600160009054906101000a900473ffffffffffffffffffffffffffffffffffffffff1681565b600260149054906101000a900460ff1681565b600080600080600080600080600080600260149054906101000a900460ff16151561024957600080fd5b600260009054906101000a900473ffffffffffffffffffffffffffffffffffffffff1673ffffffffffffffffffffffffffffffffffffffff1663e0a3b4016040518163ffffffff167c010000000000000000000000000000000000000000000000000000000002815260040161010060405180830381600087803b1580156102d057600080fd5b505af11580156102e4573d6000803e3d6000fd5b505050506040513d6101008110156102fb57600080fd5b8101908080519060200190929190805190602001909291908051906020019092919080519060200190929190805190602001909291908051906020019092919080519060200190929190805190602001909291905050509850985098509850985098509850985060008614151561043d57600260009054906101000a900473ffffffffffffffffffffffffffffffffffffffff1673ffffffffffffffffffffffffffffffffffffffff1663e10b020c6040518163ffffffff167c0100000000000000000000000000000000000000000000000000000000028152600401602060405180830381600087803b1580156103f257600080fd5b505af1158015610406573d6000803e3d6000fd5b505050506040513d602081101561041c57600080fd5b8101908080519060200190929190505050151561043857600080fd5b61070d565b60008714801561044d5750600084115b801561045f5750600560ff1688014310155b1561053557600260009054906101000a900473ffffffffffffffffffffffffffffffffffffffff1673ffffffffffffffffffffffffffffffffffffffff166315ac534d6040518163ffffffff167c0100000000000000000000000000000000000000000000000000000000028152600401602060405180830381600087803b1580156104ea57600080fd5b505af11580156104fe573d6000803e3d6000fd5b505050506040513d602081101561051457600080fd5b8101908080519060200190929190505050151561053057600080fd5b61070c565b600087141580156105465750600084115b80156105585750600160ff1687014310155b1561070b57600260009054906101000a900473ffffffffffffffffffffffffffffffffffffffff1673ffffffffffffffffffffffffffffffffffffffff1663a2d7c1066000546040518263ffffffff167c010000000000000000000000000000000000000000000000000000000002815260040180828152602001915050602060405180830381600087803b1580156105f057600080fd5b505af1158015610604573d6000803e3d6000fd5b505050506040513d602081101561061a57600080fd5b81019080805190602001909291905050509050600260009054906101000a900473ffffffffffffffffffffffffffffffffffffffff1673ffffffffffffffffffffffffffffffffffffffff1663de23ced2826040518263ffffffff167c0100000000000000000000000000000000000000000000000000000000028152600401808260ff1660ff168152602001915050602060405180830381600087803b1580156106c457600080fd5b505af11580156106d8573d6000803e3d6000fd5b505050506040513d60208110156106ee57600080fd5b8101908080519060200190929190505050151561070a57600080fd5b5b5b5b444342010160008082825401925050819055506001995050505050505050505090565b600260009054906101000a900473ffffffffffffffffffffffffffffffffffffffff1681565b6000600160009054906101000a900473ffffffffffffffffffffffffffffffffffffffff1673ffffffffffffffffffffffffffffffffffffffff163373ffffffffffffffffffffffffffffffffffffffff161415156107b457600080fd5b600260149054906101000a900460ff1615801561081f5750600073ffffffffffffffffffffffffffffffffffffffff16600260009054906101000a900473ffffffffffffffffffffffffffffffffffffffff1673ffffffffffffffffffffffffffffffffffffffff16145b156108815781600260006101000a81548173ffffffffffffffffffffffffffffffffffffffff021916908373ffffffffffffffffffffffffffffffffffffffff1602179055506001600260146101000a81548160ff0219169083151502179055505b600260149054906101000a900460ff1680156108ea57508173ffffffffffffffffffffffffffffffffffffffff16600260009054906101000a900473ffffffffffffffffffffffffffffffffffffffff1673ffffffffffffffffffffffffffffffffffffffff16145b90509190505600a165627a7a723058202db36b629fbac424e2f34abed3bd711d3f6f06f52c24d7c71293c2db4f25254b0029",
  "source": "pragma solidity ^0.4.2;\n\nimport \"./RouletteTable.sol\";\n\ncontract RouletteDealer {\n\n    uint8 constant private BLOCKS_TO_BET = 5;\n\n    uint8 constant private BLOCKS_TO_SPIN = 1;\n\n    uint256 private entropy;\n\n    address public creator;\n\n    address public rouletteTable;\n\n    bool public initialized;\n\n    modifier onlyCreator() {\n        require(msg.sender == creator);\n        _;\n    }\n\n    modifier onlyIfInitialized() {\n        require(initialized);\n        _;\n    }\n\n    constructor() public {\n        creator = msg.sender;\n    }\n\n    // Tip the dealer functionality\n    function() public {\n        revert();\n    }\n\n    function initialize(address _rouletteTable) public\n    onlyCreator\n    returns (bool){\n        if (!initialized && rouletteTable == address(0)) {\n            rouletteTable = _rouletteTable;\n            initialized = true;\n        }\n        return initialized && rouletteTable == _rouletteTable;\n    }\n\n    function work() public\n    onlyIfInitialized\n    returns (bool) {\n        (uint256 id, uint256 bettingOpenedAt, uint256 bettingClosedAt, uint256 wheelSpunAt, uint8 winner, uint256 totalBet, uint256 totalLost, uint256 totalWon) = RouletteTable(rouletteTable).currentSpin();\n\n        if (wheelSpunAt != 0) {\n            require(RouletteTable(rouletteTable).openBetting());\n        } else if (bettingClosedAt == 0 && totalBet > 0 && block.number >= bettingOpenedAt + BLOCKS_TO_BET) {\n            require(RouletteTable(rouletteTable).closeBetting());\n        } else if (bettingClosedAt != 0 && totalBet > 0 && block.number >= bettingClosedAt + BLOCKS_TO_SPIN) {\n            uint8 winner_ = RouletteTable(rouletteTable).spinWheel(entropy);\n            require(RouletteTable(rouletteTable).markWinner(winner_));\n        }\n\n        entropy += (now + block.number + block.difficulty);\n        return true;\n    }\n}",
  "sourcePath": "/app/contracts/RouletteDealer.sol",
  "compiler": {
    "name": "solc",
    "version": "0.4.24+commit.e67f0147.Emscripten.clang"
  },
  "schemaVersion": "2.0.1",
  "updatedAt": "2018-08-17T23:43:29.967Z"
}