{
  "contractName": "RouletteTable",
  "abi": [
    {
      "constant": true,
      "inputs": [],
      "name": "creator",
      "outputs": [
        {
          "name": "",
          "type": "address"
        }
      ],
      "payable": false,
      "stateMutability": "view",
      "type": "function"
    },
    {
      "constant": true,
      "inputs": [],
      "name": "initialized",
      "outputs": [
        {
          "name": "",
          "type": "bool"
        }
      ],
      "payable": false,
      "stateMutability": "view",
      "type": "function"
    },
    {
      "constant": true,
      "inputs": [
        {
          "name": "",
          "type": "address"
        }
      ],
      "name": "bettors",
      "outputs": [
        {
          "name": "index",
          "type": "uint256"
        },
        {
          "name": "account",
          "type": "address"
        },
        {
          "name": "balance",
          "type": "uint256"
        }
      ],
      "payable": false,
      "stateMutability": "view",
      "type": "function"
    },
    {
      "constant": true,
      "inputs": [],
      "name": "spinCount",
      "outputs": [
        {
          "name": "",
          "type": "uint256"
        }
      ],
      "payable": false,
      "stateMutability": "view",
      "type": "function"
    },
    {
      "constant": true,
      "inputs": [
        {
          "name": "",
          "type": "uint256"
        }
      ],
      "name": "bettorAccounts",
      "outputs": [
        {
          "name": "",
          "type": "address"
        }
      ],
      "payable": false,
      "stateMutability": "view",
      "type": "function"
    },
    {
      "constant": true,
      "inputs": [],
      "name": "currentSpin_",
      "outputs": [
        {
          "name": "id",
          "type": "uint256"
        },
        {
          "name": "bettingOpenedAt",
          "type": "uint256"
        },
        {
          "name": "bettingClosedAt",
          "type": "uint256"
        },
        {
          "name": "wheelSpunAt",
          "type": "uint256"
        },
        {
          "name": "winner",
          "type": "uint8"
        },
        {
          "name": "totalBet",
          "type": "uint256"
        },
        {
          "name": "totalLost",
          "type": "uint256"
        },
        {
          "name": "totalWon",
          "type": "uint256"
        }
      ],
      "payable": false,
      "stateMutability": "view",
      "type": "function"
    },
    {
      "constant": true,
      "inputs": [
        {
          "name": "",
          "type": "uint8"
        }
      ],
      "name": "bets",
      "outputs": [
        {
          "name": "id",
          "type": "uint8"
        },
        {
          "name": "payout",
          "type": "uint8"
        },
        {
          "name": "wagerCount",
          "type": "uint256"
        }
      ],
      "payable": false,
      "stateMutability": "view",
      "type": "function"
    },
    {
      "constant": true,
      "inputs": [
        {
          "name": "",
          "type": "uint256"
        }
      ],
      "name": "spins",
      "outputs": [
        {
          "name": "id",
          "type": "uint256"
        },
        {
          "name": "bettingOpenedAt",
          "type": "uint256"
        },
        {
          "name": "bettingClosedAt",
          "type": "uint256"
        },
        {
          "name": "wheelSpunAt",
          "type": "uint256"
        },
        {
          "name": "winner",
          "type": "uint8"
        },
        {
          "name": "totalBet",
          "type": "uint256"
        },
        {
          "name": "totalLost",
          "type": "uint256"
        },
        {
          "name": "totalWon",
          "type": "uint256"
        }
      ],
      "payable": false,
      "stateMutability": "view",
      "type": "function"
    },
    {
      "constant": true,
      "inputs": [],
      "name": "casino",
      "outputs": [
        {
          "name": "",
          "type": "address"
        }
      ],
      "payable": false,
      "stateMutability": "view",
      "type": "function"
    },
    {
      "constant": true,
      "inputs": [],
      "name": "dealer",
      "outputs": [
        {
          "name": "",
          "type": "address"
        }
      ],
      "payable": false,
      "stateMutability": "view",
      "type": "function"
    },
    {
      "constant": true,
      "inputs": [],
      "name": "totalBettorSupply",
      "outputs": [
        {
          "name": "",
          "type": "uint256"
        }
      ],
      "payable": false,
      "stateMutability": "view",
      "type": "function"
    },
    {
      "constant": true,
      "inputs": [],
      "name": "bettorCount",
      "outputs": [
        {
          "name": "",
          "type": "uint256"
        }
      ],
      "payable": false,
      "stateMutability": "view",
      "type": "function"
    },
    {
      "constant": true,
      "inputs": [
        {
          "name": "",
          "type": "uint8"
        }
      ],
      "name": "pockets",
      "outputs": [
        {
          "name": "id",
          "type": "uint8"
        }
      ],
      "payable": false,
      "stateMutability": "view",
      "type": "function"
    },
    {
      "inputs": [],
      "payable": false,
      "stateMutability": "nonpayable",
      "type": "constructor"
    },
    {
      "payable": true,
      "stateMutability": "payable",
      "type": "fallback"
    },
    {
      "constant": true,
      "inputs": [
        {
          "name": "_account",
          "type": "address"
        }
      ],
      "name": "bettorOf",
      "outputs": [
        {
          "name": "index",
          "type": "uint256"
        },
        {
          "name": "account",
          "type": "address"
        },
        {
          "name": "balance",
          "type": "uint256"
        }
      ],
      "payable": false,
      "stateMutability": "view",
      "type": "function"
    },
    {
      "constant": true,
      "inputs": [],
      "name": "currentSpin",
      "outputs": [
        {
          "name": "id",
          "type": "uint256"
        },
        {
          "name": "bettingOpenedAt",
          "type": "uint256"
        },
        {
          "name": "bettingClosedAt",
          "type": "uint256"
        },
        {
          "name": "wheelSpunAt",
          "type": "uint256"
        },
        {
          "name": "winner",
          "type": "uint8"
        },
        {
          "name": "totalBet",
          "type": "uint256"
        },
        {
          "name": "totalLost",
          "type": "uint256"
        },
        {
          "name": "totalWon",
          "type": "uint256"
        }
      ],
      "payable": false,
      "stateMutability": "view",
      "type": "function"
    },
    {
      "constant": false,
      "inputs": [
        {
          "name": "_id",
          "type": "uint8"
        },
        {
          "name": "_payout",
          "type": "uint8"
        },
        {
          "name": "",
          "type": "string"
        }
      ],
      "name": "addBet",
      "outputs": [
        {
          "name": "",
          "type": "bool"
        }
      ],
      "payable": false,
      "stateMutability": "nonpayable",
      "type": "function"
    },
    {
      "constant": false,
      "inputs": [
        {
          "name": "_wheelPocket",
          "type": "uint8"
        },
        {
          "name": "_bet",
          "type": "uint8"
        },
        {
          "name": "",
          "type": "string"
        }
      ],
      "name": "addRule",
      "outputs": [
        {
          "name": "",
          "type": "bool"
        }
      ],
      "payable": false,
      "stateMutability": "nonpayable",
      "type": "function"
    },
    {
      "constant": false,
      "inputs": [],
      "name": "closeBetting",
      "outputs": [
        {
          "name": "",
          "type": "bool"
        }
      ],
      "payable": false,
      "stateMutability": "nonpayable",
      "type": "function"
    },
    {
      "constant": false,
      "inputs": [],
      "name": "initializeBets",
      "outputs": [
        {
          "name": "",
          "type": "bool"
        }
      ],
      "payable": false,
      "stateMutability": "nonpayable",
      "type": "function"
    },
    {
      "constant": false,
      "inputs": [
        {
          "name": "_casino",
          "type": "address"
        }
      ],
      "name": "initializeCasino",
      "outputs": [
        {
          "name": "",
          "type": "bool"
        }
      ],
      "payable": false,
      "stateMutability": "nonpayable",
      "type": "function"
    },
    {
      "constant": false,
      "inputs": [
        {
          "name": "_dealer",
          "type": "address"
        }
      ],
      "name": "initializeDealer",
      "outputs": [
        {
          "name": "",
          "type": "bool"
        }
      ],
      "payable": false,
      "stateMutability": "nonpayable",
      "type": "function"
    },
    {
      "constant": false,
      "inputs": [],
      "name": "initializeRules",
      "outputs": [
        {
          "name": "",
          "type": "bool"
        }
      ],
      "payable": false,
      "stateMutability": "nonpayable",
      "type": "function"
    },
    {
      "constant": false,
      "inputs": [],
      "name": "initializePockets",
      "outputs": [
        {
          "name": "",
          "type": "bool"
        }
      ],
      "payable": false,
      "stateMutability": "nonpayable",
      "type": "function"
    },
    {
      "constant": false,
      "inputs": [],
      "name": "nudgeDealer",
      "outputs": [
        {
          "name": "",
          "type": "bool"
        }
      ],
      "payable": false,
      "stateMutability": "nonpayable",
      "type": "function"
    },
    {
      "constant": false,
      "inputs": [],
      "name": "openBetting",
      "outputs": [
        {
          "name": "",
          "type": "bool"
        }
      ],
      "payable": false,
      "stateMutability": "nonpayable",
      "type": "function"
    },
    {
      "constant": false,
      "inputs": [],
      "name": "liquidate",
      "outputs": [
        {
          "name": "",
          "type": "bool"
        }
      ],
      "payable": false,
      "stateMutability": "nonpayable",
      "type": "function"
    },
    {
      "constant": false,
      "inputs": [],
      "name": "pullBets",
      "outputs": [
        {
          "name": "",
          "type": "bool"
        }
      ],
      "payable": false,
      "stateMutability": "nonpayable",
      "type": "function"
    },
    {
      "constant": false,
      "inputs": [
        {
          "name": "_entropy",
          "type": "uint256"
        }
      ],
      "name": "spinWheel",
      "outputs": [
        {
          "name": "",
          "type": "uint8"
        }
      ],
      "payable": false,
      "stateMutability": "nonpayable",
      "type": "function"
    },
    {
      "constant": false,
      "inputs": [
        {
          "name": "winner",
          "type": "uint8"
        }
      ],
      "name": "markWinner",
      "outputs": [
        {
          "name": "",
          "type": "bool"
        }
      ],
      "payable": false,
      "stateMutability": "nonpayable",
      "type": "function"
    },
    {
      "constant": false,
      "inputs": [
        {
          "name": "_betID",
          "type": "uint8"
        },
        {
          "name": "_amount",
          "type": "uint256"
        }
      ],
      "name": "wager",
      "outputs": [
        {
          "name": "",
          "type": "bool"
        }
      ],
      "payable": false,
      "stateMutability": "nonpayable",
      "type": "function"
    },
    {
      "constant": false,
      "inputs": [
        {
          "name": "_amount",
          "type": "uint256"
        }
      ],
      "name": "withdraw",
      "outputs": [
        {
          "name": "",
          "type": "bool"
        }
      ],
      "payable": false,
      "stateMutability": "nonpayable",
      "type": "function"
    }
  ],
  "bytecode": "0x608060405234801561001057600080fd5b5033600160006101000a81548173ffffffffffffffffffffffffffffffffffffffff021916908373ffffffffffffffffffffffffffffffffffffffff160217905550614c5c806100616000396000f30060806040526004361061018b576000357c0100000000000000000000000000000000000000000000000000000000900463ffffffff16806302d05d3f146101fa5780630e4ab76514610251578063158ef93e146102ac57806315ac534d146102db5780631ab5a5221461030a57806322010c1f1461033957806328a07025146103ca5780632dea805b146103f95780632e1a7d4d14610424578063388ae4911461046957806349257dc8146104d6578063574dfc9c146105055780636d4bbea5146105a057806379aaf8c9146106025780637e0ecc00146106315780638315c2641461068f5780638928922c146107075780639403e8dd146107365780639de2ee211461078d5780639e0fc017146107e4578063a2d7c1061461080f578063a716ab9d14610856578063c0a35d6914610881578063cb908a9e146108dc578063d03f6d8e1461090b578063dbcacfe7146109a6578063dcf1d6dd146109f0578063de23ced214610a81578063e0a3b40114610ac9578063e10b020c14610b2b578063f0ee2b0514610b5a575b600060079054906101000a900473ffffffffffffffffffffffffffffffffffffffff1673ffffffffffffffffffffffffffffffffffffffff163373ffffffffffffffffffffffffffffffffffffffff161415156101f8576101ec3334610bac565b15156101f757600080fd5b5b005b34801561020657600080fd5b5061020f610cef565b604051808273ffffffffffffffffffffffffffffffffffffffff1673ffffffffffffffffffffffffffffffffffffffff16815260200191505060405180910390f35b34801561025d57600080fd5b50610292600480360381019080803573ffffffffffffffffffffffffffffffffffffffff169060200190929190505050610d15565b604051808215151515815260200191505060405180910390f35b3480156102b857600080fd5b506102c1610e9e565b604051808215151515815260200191505060405180910390f35b3480156102e757600080fd5b506102f0610eb1565b604051808215151515815260200191505060405180910390f35b34801561031657600080fd5b5061031f610f61565b604051808215151515815260200191505060405180910390f35b34801561034557600080fd5b5061037a600480360381019080803573ffffffffffffffffffffffffffffffffffffffff1690602001909291905050506110b0565b604051808481526020018373ffffffffffffffffffffffffffffffffffffffff1673ffffffffffffffffffffffffffffffffffffffff168152602001828152602001935050505060405180910390f35b3480156103d657600080fd5b506103df6110fa565b604051808215151515815260200191505060405180910390f35b34801561040557600080fd5b5061040e6111e4565b6040518082815260200191505060405180910390f35b34801561043057600080fd5b5061044f600480360381019080803590602001909291905050506111ea565b604051808215151515815260200191505060405180910390f35b34801561047557600080fd5b50610494600480360381019080803590602001909291905050506112df565b604051808273ffffffffffffffffffffffffffffffffffffffff1673ffffffffffffffffffffffffffffffffffffffff16815260200191505060405180910390f35b3480156104e257600080fd5b506104eb611312565b604051808215151515815260200191505060405180910390f35b34801561051157600080fd5b50610586600480360381019080803560ff169060200190929190803560ff169060200190929190803590602001908201803590602001908080601f016020809104026020016040519081016040528093929190818152602001838380828437820191505050505050919291929050505061145e565b604051808215151515815260200191505060405180910390f35b3480156105ac57600080fd5b506105b561156c565b604051808981526020018881526020018781526020018681526020018560ff1660ff1681526020018481526020018381526020018281526020019850505050505050505060405180910390f35b34801561060e57600080fd5b506106176115af565b604051808215151515815260200191505060405180910390f35b34801561063d57600080fd5b5061065f600480360381019080803560ff1690602001909291905050506116fe565b604051808460ff1660ff1681526020018360ff1660ff168152602001828152602001935050505060405180910390f35b34801561069b57600080fd5b506106ba60048036038101908080359060200190929190505050611742565b604051808981526020018881526020018781526020018681526020018560ff1660ff1681526020018481526020018381526020018281526020019850505050505050505060405180910390f35b34801561071357600080fd5b5061071c611797565b604051808215151515815260200191505060405180910390f35b34801561074257600080fd5b5061074b6118fe565b604051808273ffffffffffffffffffffffffffffffffffffffff1673ffffffffffffffffffffffffffffffffffffffff16815260200191505060405180910390f35b34801561079957600080fd5b506107a2611924565b604051808273ffffffffffffffffffffffffffffffffffffffff1673ffffffffffffffffffffffffffffffffffffffff16815260200191505060405180910390f35b3480156107f057600080fd5b506107f961194a565b6040518082815260200191505060405180910390f35b34801561081b57600080fd5b5061083a60048036038101908080359060200190929190505050611950565b604051808260ff1660ff16815260200191505060405180910390f35b34801561086257600080fd5b5061086b6119f7565b6040518082815260200191505060405180910390f35b34801561088d57600080fd5b506108c2600480360381019080803573ffffffffffffffffffffffffffffffffffffffff1690602001909291905050506119fd565b604051808215151515815260200191505060405180910390f35b3480156108e857600080fd5b506108f1611b86565b604051808215151515815260200191505060405180910390f35b34801561091757600080fd5b5061098c600480360381019080803560ff169060200190929190803560ff169060200190929190803590602001908201803590602001908080601f0160208091040260200160405190810160405280939291908181526020018383808284378201915050505050509192919290505050611c5b565b604051808215151515815260200191505060405180910390f35b3480156109b257600080fd5b506109d4600480360381019080803560ff169060200190929190505050611df5565b604051808260ff1660ff16815260200191505060405180910390f35b3480156109fc57600080fd5b50610a31600480360381019080803573ffffffffffffffffffffffffffffffffffffffff169060200190929190505050611e20565b604051808481526020018373ffffffffffffffffffffffffffffffffffffffff1673ffffffffffffffffffffffffffffffffffffffff168152602001828152602001935050505060405180910390f35b348015610a8d57600080fd5b50610aaf600480360381019080803560ff169060200190929190505050611ea4565b604051808215151515815260200191505060405180910390f35b348015610ad557600080fd5b50610ade611fbe565b604051808981526020018881526020018781526020018681526020018560ff1660ff1681526020018481526020018381526020018281526020019850505050505050505060405180910390f35b348015610b3757600080fd5b50610b40612020565b604051808215151515815260200191505060405180910390f35b348015610b6657600080fd5b50610b92600480360381019080803560ff16906020019092919080359060200190929190505050612202565b604051808215151515815260200191505060405180910390f35b6000806000831415610bc15760019150610ce8565b82600560008282540192505081905550600e60008573ffffffffffffffffffffffffffffffffffffffff1673ffffffffffffffffffffffffffffffffffffffff1681526020019081526020016000209050838160010160006101000a81548173ffffffffffffffffffffffffffffffffffffffff021916908373ffffffffffffffffffffffffffffffffffffffff1602179055508281600201600082825401925050819055508281600201541415610ce3576003600081548092919060010191905055816000018190555083601160008360000154815260200190815260200160002060006101000a81548173ffffffffffffffffffffffffffffffffffffffff021916908373ffffffffffffffffffffffffffffffffffffffff1602179055505b600191505b5092915050565b600160009054906101000a900473ffffffffffffffffffffffffffffffffffffffff1681565b6000600160009054906101000a900473ffffffffffffffffffffffffffffffffffffffff1673ffffffffffffffffffffffffffffffffffffffff163373ffffffffffffffffffffffffffffffffffffffff16141515610d7357600080fd5b600260149054906101000a900460ff16158015610d9d5750600060029054906101000a900460ff16155b15610e875781600260006101000a81548173ffffffffffffffffffffffffffffffffffffffff021916908373ffffffffffffffffffffffffffffffffffffffff1602179055506001600060026101000a81548160ff021916908315150217905550600060019054906101000a900460ff168015610e265750600060029054906101000a900460ff165b8015610e3e5750600060049054906101000a900460ff165b8015610e5557506000809054906101000a900460ff165b8015610e6d5750600060039054906101000a900460ff165b600260146101000a81548160ff0219169083151502179055505b600060029054906101000a900460ff169050919050565b600260149054906101000a900460ff1681565b6000600260149054906101000a900460ff161515610ece57600080fd5b600260009054906101000a900473ffffffffffffffffffffffffffffffffffffffff1673ffffffffffffffffffffffffffffffffffffffff163373ffffffffffffffffffffffffffffffffffffffff16141515610f2a57600080fd5b600060066001015414158015610f4557506000600660020154145b1515610f5057600080fd5b436006600201819055506001905090565b6000600160009054906101000a900473ffffffffffffffffffffffffffffffffffffffff1673ffffffffffffffffffffffffffffffffffffffff163373ffffffffffffffffffffffffffffffffffffffff16141515610fbf57600080fd5b600260149054906101000a900460ff16158015610fe95750600060049054906101000a900460ff16155b1561109b57610ff6612363565b506001600060046101000a81548160ff021916908315150217905550600060019054906101000a900460ff16801561103a5750600060029054906101000a900460ff165b80156110525750600060049054906101000a900460ff165b801561106957506000809054906101000a900460ff165b80156110815750600060039054906101000a900460ff165b600260146101000a81548160ff0219169083151502179055505b600060049054906101000a900460ff16905090565b600e6020528060005260406000206000915090508060000154908060010160009054906101000a900473ffffffffffffffffffffffffffffffffffffffff16908060020154905083565b6000806000600260149054906101000a900460ff16151561111a57600080fd5b600e60003373ffffffffffffffffffffffffffffffffffffffff1673ffffffffffffffffffffffffffffffffffffffff1681526020019081526020016000209150816002015490506111908260010160009054906101000a900473ffffffffffffffffffffffffffffffffffffffff168261250e565b151561119b57600080fd5b3373ffffffffffffffffffffffffffffffffffffffff166108fc829081150290604051600060405180830381858888f1935050505015156111db57600080fd5b60019250505090565b60045481565b600080600260149054906101000a900460ff16151561120857600080fd5b600e60003373ffffffffffffffffffffffffffffffffffffffff1673ffffffffffffffffffffffffffffffffffffffff16815260200190815260200160002090508281600201541015151561125c57600080fd5b61128a8160010160009054906101000a900473ffffffffffffffffffffffffffffffffffffffff168461250e565b151561129557600080fd5b3373ffffffffffffffffffffffffffffffffffffffff166108fc849081150290604051600060405180830381858888f1935050505015156112d557600080fd5b6001915050919050565b60116020528060005260406000206000915054906101000a900473ffffffffffffffffffffffffffffffffffffffff1681565b6000600160009054906101000a900473ffffffffffffffffffffffffffffffffffffffff1673ffffffffffffffffffffffffffffffffffffffff163373ffffffffffffffffffffffffffffffffffffffff1614151561137057600080fd5b600260149054906101000a900460ff1615801561139957506000809054906101000a900460ff16155b1561144a576113a6612804565b5060016000806101000a81548160ff021916908315150217905550600060019054906101000a900460ff1680156113e95750600060029054906101000a900460ff165b80156114015750600060049054906101000a900460ff165b801561141857506000809054906101000a900460ff165b80156114305750600060039054906101000a900460ff165b600260146101000a81548160ff0219169083151502179055505b6000809054906101000a900460ff16905090565b600080600260149054906101000a900460ff1615151561147d57600080fd5b600160009054906101000a900473ffffffffffffffffffffffffffffffffffffffff1673ffffffffffffffffffffffffffffffffffffffff163373ffffffffffffffffffffffffffffffffffffffff161415156114d957600080fd5b6000600681819054906101000a900460ff168092919060010191906101000a81548160ff021916908360ff16021790555050600f60008660ff1660ff1681526020019081526020016000209050848160000160006101000a81548160ff021916908360ff160217905550838160000160016101000a81548160ff021916908360ff16021790555060019150509392505050565b60068060000154908060010154908060020154908060030154908060040160009054906101000a900460ff16908060050154908060060154908060070154905088565b6000600160009054906101000a900473ffffffffffffffffffffffffffffffffffffffff1673ffffffffffffffffffffffffffffffffffffffff163373ffffffffffffffffffffffffffffffffffffffff1614151561160d57600080fd5b600260149054906101000a900460ff161580156116375750600060039054906101000a900460ff16155b156116e957611644613284565b506001600060036101000a81548160ff021916908315150217905550600060019054906101000a900460ff1680156116885750600060029054906101000a900460ff165b80156116a05750600060049054906101000a900460ff165b80156116b757506000809054906101000a900460ff165b80156116cf5750600060039054906101000a900460ff165b600260146101000a81548160ff0219169083151502179055505b600060039054906101000a900460ff16905090565b600f6020528060005260406000206000915090508060000160009054906101000a900460ff16908060000160019054906101000a900460ff16908060010154905083565b60126020528060005260406000206000915090508060000154908060010154908060020154908060030154908060040160009054906101000a900460ff16908060050154908060060154908060070154905088565b6000806000806000600260149054906101000a900460ff1615156117ba57600080fd5b6000600660010154141580156117d557506000600660020154145b15156117e057600080fd5b600193505b600060069054906101000a900460ff1660ff168460ff161115156118f357600f60008560ff1660ff1681526020019081526020016000209250600091505b82600101548210156118e65782600201600083815260200190815260200160002090503373ffffffffffffffffffffffffffffffffffffffff168160000160009054906101000a900473ffffffffffffffffffffffffffffffffffffffff1673ffffffffffffffffffffffffffffffffffffffff1614156118d9576118ac338260010154610bac565b15156118b757600080fd5b8060010154600660050160008282540392505081905550600081600101819055505b8180600101925050611823565b83806001019450506117e5565b600194505050505090565b600060079054906101000a900473ffffffffffffffffffffffffffffffffffffffff1681565b600260009054906101000a900473ffffffffffffffffffffffffffffffffffffffff1681565b60055481565b6000600260149054906101000a900460ff16151561196d57600080fd5b600260009054906101000a900473ffffffffffffffffffffffffffffffffffffffff1673ffffffffffffffffffffffffffffffffffffffff163373ffffffffffffffffffffffffffffffffffffffff161415156119c957600080fd5b60046000815480929190600101919050555060016119ef836004540160010260256145c5565b019050919050565b60035481565b6000600160009054906101000a900473ffffffffffffffffffffffffffffffffffffffff1673ffffffffffffffffffffffffffffffffffffffff163373ffffffffffffffffffffffffffffffffffffffff16141515611a5b57600080fd5b600260149054906101000a900460ff16158015611a855750600060019054906101000a900460ff16155b15611b6f5781600060076101000a81548173ffffffffffffffffffffffffffffffffffffffff021916908373ffffffffffffffffffffffffffffffffffffffff1602179055506001600060016101000a81548160ff021916908315150217905550600060019054906101000a900460ff168015611b0e5750600060029054906101000a900460ff165b8015611b265750600060049054906101000a900460ff165b8015611b3d57506000809054906101000a900460ff165b8015611b555750600060039054906101000a900460ff165b600260146101000a81548160ff0219169083151502179055505b600060019054906101000a900460ff169050919050565b6000600260009054906101000a900473ffffffffffffffffffffffffffffffffffffffff1673ffffffffffffffffffffffffffffffffffffffff1663322e9f046040518163ffffffff167c0100000000000000000000000000000000000000000000000000000000028152600401602060405180830381600087803b158015611c0e57600080fd5b505af1158015611c22573d6000803e3d6000fd5b505050506040513d6020811015611c3857600080fd5b81019080805190602001909291905050501515611c5457600080fd5b6001905090565b6000600260149054906101000a900460ff16151515611c7957600080fd5b600160009054906101000a900473ffffffffffffffffffffffffffffffffffffffff1673ffffffffffffffffffffffffffffffffffffffff163373ffffffffffffffffffffffffffffffffffffffff16141515611cd557600080fd5b601060008560ff1660ff168152602001908152602001600020600101600f60008560ff1660ff168152602001908152602001600020908060018154018082558091505090600182039060005260206000209060040201600090919290919091506000820160009054906101000a900460ff168160000160006101000a81548160ff021916908360ff1602179055506000820160019054906101000a900460ff168160000160016101000a81548160ff021916908360ff160217905550600182015481600101555050506001600f60008560ff1660ff16815260200190815260200160002060030160008660ff1660ff16815260200190815260200160002060006101000a81548160ff021916908315150217905550600190509392505050565b60106020528060005260406000206000915090508060000160009054906101000a900460ff16905081565b600080600080600e60008673ffffffffffffffffffffffffffffffffffffffff1673ffffffffffffffffffffffffffffffffffffffff168152602001908152602001600020905080600001548160010160009054906101000a900473ffffffffffffffffffffffffffffffffffffffff168260020154935093509350509193909250565b6000600260149054906101000a900460ff161515611ec157600080fd5b600260009054906101000a900473ffffffffffffffffffffffffffffffffffffffff1673ffffffffffffffffffffffffffffffffffffffff163373ffffffffffffffffffffffffffffffffffffffff16141515611f1d57600080fd5b600060066001015414158015611f395750600060066002015414155b1515611f4457600080fd5b60018260ff1610158015611f5c575060268260ff1611155b1515611f6757600080fd5b81600660040160006101000a81548160ff021916908360ff16021790555043600660030181905550611f97614651565b1515611fa257600080fd5b611faa6146a0565b1515611fb557600080fd5b60019050919050565b600080600080600080600080600660000154600660010154600660020154600660030154600660040160009054906101000a900460ff166006600501546006800154600660070154975097509750975097509750975097509091929394959697565b600080600260149054906101000a900460ff16151561203e57600080fd5b600260009054906101000a900473ffffffffffffffffffffffffffffffffffffffff1673ffffffffffffffffffffffffffffffffffffffff163373ffffffffffffffffffffffffffffffffffffffff1614151561209a57600080fd5b60046000815480929190600101919050559050610100604051908101604052808281526020014381526020016000815260200160008152602001600060ff16815260200160008152602001600081526020016000815250601260008381526020019081526020016000206000820151816000015560208201518160010155604082015181600201556060820151816003015560808201518160040160006101000a81548160ff021916908360ff16021790555060a0820151816005015560c0820151816006015560e08201518160070155905050601260008281526020019081526020016000206006600082015481600001556001820154816001015560028201548160020155600382015481600301556004820160009054906101000a900460ff168160040160006101000a81548160ff021916908360ff160217905550600582015481600501556006820154816006015560078201548160070155905050600191505090565b600080600260149054906101000a900460ff16151561222057600080fd5b60006006600101541415801561223b57506000600660020154145b151561224657600080fd5b60006006600101541415151561225b57600080fd5b600060066002015414151561226f57600080fd5b612279338461250e565b151561228457600080fd5b600f60008560ff1660ff168152602001908152602001600020905060408051908101604052803373ffffffffffffffffffffffffffffffffffffffff1681526020018481525081600201600083600101600081548092919060010191905055815260200190815260200160002060008201518160000160006101000a81548173ffffffffffffffffffffffffffffffffffffffff021916908373ffffffffffffffffffffffffffffffffffffffff1602179055506020820151816001015590505082600660050160008282540192505081905550600191505092915050565b600061236f6001614892565b5061237a6002614892565b506123856003614892565b506123906004614892565b5061239b6005614892565b506123a66006614892565b506123b16007614892565b506123bc6008614892565b506123c76009614892565b506123d2600a614892565b506123dd600b614892565b506123e8600c614892565b506123f3600d614892565b506123fe600e614892565b50612409600f614892565b506124146010614892565b5061241f6011614892565b5061242a6012614892565b506124356013614892565b506124406014614892565b5061244b6015614892565b506124566016614892565b506124616017614892565b5061246c6018614892565b506124776019614892565b50612482601a614892565b5061248d601b614892565b50612498601c614892565b506124a3601d614892565b506124ae601e614892565b506124b9601f614892565b506124c46020614892565b506124cf6021614892565b506124da6022614892565b506124e56023614892565b506124f06024614892565b506124fb6025614892565b506125066026614892565b506001905090565b600080600080600085141561252657600193506127fb565b84600560008282540392505081905550600e60008773ffffffffffffffffffffffffffffffffffffffff1673ffffffffffffffffffffffffffffffffffffffff1681526020019081526020016000209250858360010160006101000a81548173ffffffffffffffffffffffffffffffffffffffff021916908373ffffffffffffffffffffffffffffffffffffffff1602179055508483600201600082825403925050819055506000836002015414156127f6576003600081546001900391905081905591508183600001541415156126d057600e60006011600085815260200190815260200160002060009054906101000a900473ffffffffffffffffffffffffffffffffffffffff1673ffffffffffffffffffffffffffffffffffffffff1673ffffffffffffffffffffffffffffffffffffffff16815260200190815260200160002090508260000154816000018190555085601160008560000154815260200190815260200160002060006101000a81548173ffffffffffffffffffffffffffffffffffffffff021916908373ffffffffffffffffffffffffffffffffffffffff1602179055505b60006011600084815260200190815260200160002060006101000a81548173ffffffffffffffffffffffffffffffffffffffff021916908373ffffffffffffffffffffffffffffffffffffffff16021790555060606040519081016040528060008152602001600073ffffffffffffffffffffffffffffffffffffffff1681526020016000815250600e60008873ffffffffffffffffffffffffffffffffffffffff1673ffffffffffffffffffffffffffffffffffffffff1681526020019081526020016000206000820151816000015560208201518160010160006101000a81548173ffffffffffffffffffffffffffffffffffffffff021916908373ffffffffffffffffffffffffffffffffffffffff160217905550604082015181600201559050505b600193505b50505092915050565b6000612848600160236040805190810160405280600181526020017f310000000000000000000000000000000000000000000000000000000000000081525061145e565b5061288b600260236040805190810160405280600181526020017f320000000000000000000000000000000000000000000000000000000000000081525061145e565b506128ce600360236040805190810160405280600181526020017f330000000000000000000000000000000000000000000000000000000000000081525061145e565b50612911600460236040805190810160405280600181526020017f340000000000000000000000000000000000000000000000000000000000000081525061145e565b50612954600560236040805190810160405280600181526020017f350000000000000000000000000000000000000000000000000000000000000081525061145e565b50612997600660236040805190810160405280600181526020017f360000000000000000000000000000000000000000000000000000000000000081525061145e565b506129da600760236040805190810160405280600181526020017f370000000000000000000000000000000000000000000000000000000000000081525061145e565b50612a1d600860236040805190810160405280600181526020017f380000000000000000000000000000000000000000000000000000000000000081525061145e565b50612a60600960236040805190810160405280600181526020017f390000000000000000000000000000000000000000000000000000000000000081525061145e565b50612aa3600a60236040805190810160405280600281526020017f313000000000000000000000000000000000000000000000000000000000000081525061145e565b50612ae6600b60236040805190810160405280600281526020017f313100000000000000000000000000000000000000000000000000000000000081525061145e565b50612b29600c60236040805190810160405280600281526020017f313200000000000000000000000000000000000000000000000000000000000081525061145e565b50612b6c600d60236040805190810160405280600281526020017f313300000000000000000000000000000000000000000000000000000000000081525061145e565b50612baf600e60236040805190810160405280600281526020017f313400000000000000000000000000000000000000000000000000000000000081525061145e565b50612bf2600f60236040805190810160405280600281526020017f313500000000000000000000000000000000000000000000000000000000000081525061145e565b50612c35601060236040805190810160405280600281526020017f313600000000000000000000000000000000000000000000000000000000000081525061145e565b50612c78601160236040805190810160405280600281526020017f313700000000000000000000000000000000000000000000000000000000000081525061145e565b50612cbb601260236040805190810160405280600281526020017f313800000000000000000000000000000000000000000000000000000000000081525061145e565b50612cfe601360236040805190810160405280600281526020017f313900000000000000000000000000000000000000000000000000000000000081525061145e565b50612d41601460236040805190810160405280600281526020017f323000000000000000000000000000000000000000000000000000000000000081525061145e565b50612d84601560236040805190810160405280600281526020017f323100000000000000000000000000000000000000000000000000000000000081525061145e565b50612dc7601660236040805190810160405280600281526020017f323200000000000000000000000000000000000000000000000000000000000081525061145e565b50612e0a601760236040805190810160405280600281526020017f323300000000000000000000000000000000000000000000000000000000000081525061145e565b50612e4d601860236040805190810160405280600281526020017f323400000000000000000000000000000000000000000000000000000000000081525061145e565b50612e90601960236040805190810160405280600281526020017f323500000000000000000000000000000000000000000000000000000000000081525061145e565b50612ed3601a60236040805190810160405280600281526020017f323600000000000000000000000000000000000000000000000000000000000081525061145e565b50612f16601b60236040805190810160405280600281526020017f323700000000000000000000000000000000000000000000000000000000000081525061145e565b50612f59601c60236040805190810160405280600281526020017f323800000000000000000000000000000000000000000000000000000000000081525061145e565b50612f9c601d60236040805190810160405280600281526020017f323900000000000000000000000000000000000000000000000000000000000081525061145e565b50612fdf601e60236040805190810160405280600281526020017f333000000000000000000000000000000000000000000000000000000000000081525061145e565b50613022601f60236040805190810160405280600281526020017f333100000000000000000000000000000000000000000000000000000000000081525061145e565b50613065602060236040805190810160405280600281526020017f333200000000000000000000000000000000000000000000000000000000000081525061145e565b506130a8602160236040805190810160405280600281526020017f333300000000000000000000000000000000000000000000000000000000000081525061145e565b506130eb602260236040805190810160405280600281526020017f333400000000000000000000000000000000000000000000000000000000000081525061145e565b5061312d6023806040805190810160405280600281526020017f333500000000000000000000000000000000000000000000000000000000000081525061145e565b50613170602460236040805190810160405280600281526020017f333600000000000000000000000000000000000000000000000000000000000081525061145e565b506131b3602560236040805190810160405280600181526020017f300000000000000000000000000000000000000000000000000000000000000081525061145e565b506131f6602660236040805190810160405280600281526020017f303000000000000000000000000000000000000000000000000000000000000081525061145e565b50613239602760016040805190810160405280600381526020017f726564000000000000000000000000000000000000000000000000000000000081525061145e565b5061327c602860016040805190810160405280600581526020017f626c61636b00000000000000000000000000000000000000000000000000000081525061145e565b506001905090565b60006132c76001806040805190810160405280600a81526020017f3120737472616967687400000000000000000000000000000000000000000000815250611c5b565b5061330a600160276040805190810160405280600581526020017f3120726564000000000000000000000000000000000000000000000000000000815250611c5b565b5061334c6002806040805190810160405280600a81526020017f3220737472616967687400000000000000000000000000000000000000000000815250611c5b565b5061338f600260286040805190810160405280600781526020017f3220626c61636b00000000000000000000000000000000000000000000000000815250611c5b565b506133d16003806040805190810160405280600a81526020017f3320737472616967687400000000000000000000000000000000000000000000815250611c5b565b50613414600360276040805190810160405280600581526020017f3320726564000000000000000000000000000000000000000000000000000000815250611c5b565b506134566004806040805190810160405280600a81526020017f3420737472616967687400000000000000000000000000000000000000000000815250611c5b565b50613499600460286040805190810160405280600781526020017f3420626c61636b00000000000000000000000000000000000000000000000000815250611c5b565b506134db6005806040805190810160405280600a81526020017f3520737472616967687400000000000000000000000000000000000000000000815250611c5b565b5061351e600560276040805190810160405280600581526020017f3520726564000000000000000000000000000000000000000000000000000000815250611c5b565b506135606006806040805190810160405280600a81526020017f3620737472616967687400000000000000000000000000000000000000000000815250611c5b565b506135a3600660286040805190810160405280600781526020017f3620626c61636b00000000000000000000000000000000000000000000000000815250611c5b565b506135e56007806040805190810160405280600a81526020017f3720737472616967687400000000000000000000000000000000000000000000815250611c5b565b50613628600760276040805190810160405280600581526020017f3720726564000000000000000000000000000000000000000000000000000000815250611c5b565b5061366a6008806040805190810160405280600a81526020017f3820737472616967687400000000000000000000000000000000000000000000815250611c5b565b506136ad600860286040805190810160405280600781526020017f3820626c61636b00000000000000000000000000000000000000000000000000815250611c5b565b506136ef6009806040805190810160405280600a81526020017f3920737472616967687400000000000000000000000000000000000000000000815250611c5b565b50613732600960276040805190810160405280600581526020017f3920726564000000000000000000000000000000000000000000000000000000815250611c5b565b50613774600a806040805190810160405280600b81526020017f3130207374726169676874000000000000000000000000000000000000000000815250611c5b565b506137b7600a60286040805190810160405280600881526020017f313020626c61636b000000000000000000000000000000000000000000000000815250611c5b565b506137f9600b806040805190810160405280600b81526020017f3131207374726169676874000000000000000000000000000000000000000000815250611c5b565b5061383c600b60276040805190810160405280600681526020017f3131207265640000000000000000000000000000000000000000000000000000815250611c5b565b5061387e600c806040805190810160405280600b81526020017f3132207374726169676874000000000000000000000000000000000000000000815250611c5b565b506138c1600c60286040805190810160405280600881526020017f313220626c61636b000000000000000000000000000000000000000000000000815250611c5b565b50613903600d806040805190810160405280600b81526020017f3133207374726169676874000000000000000000000000000000000000000000815250611c5b565b50613946600d60276040805190810160405280600681526020017f3133207265640000000000000000000000000000000000000000000000000000815250611c5b565b50613988600e806040805190810160405280600b81526020017f3134207374726169676874000000000000000000000000000000000000000000815250611c5b565b506139cb600e60286040805190810160405280600881526020017f313420626c61636b000000000000000000000000000000000000000000000000815250611c5b565b50613a0d600f806040805190810160405280600b81526020017f3135207374726169676874000000000000000000000000000000000000000000815250611c5b565b50613a50600f60276040805190810160405280600681526020017f3135207265640000000000000000000000000000000000000000000000000000815250611c5b565b50613a926010806040805190810160405280600b81526020017f3136207374726169676874000000000000000000000000000000000000000000815250611c5b565b50613ad5601060286040805190810160405280600881526020017f313620626c61636b000000000000000000000000000000000000000000000000815250611c5b565b50613b176011806040805190810160405280600b81526020017f3137207374726169676874000000000000000000000000000000000000000000815250611c5b565b50613b5a601160276040805190810160405280600681526020017f3137207265640000000000000000000000000000000000000000000000000000815250611c5b565b50613b9c6012806040805190810160405280600b81526020017f3138207374726169676874000000000000000000000000000000000000000000815250611c5b565b50613bdf601260286040805190810160405280600881526020017f313820626c61636b000000000000000000000000000000000000000000000000815250611c5b565b50613c216013806040805190810160405280600b81526020017f3139207374726169676874000000000000000000000000000000000000000000815250611c5b565b50613c64601360276040805190810160405280600681526020017f3139207265640000000000000000000000000000000000000000000000000000815250611c5b565b50613ca66014806040805190810160405280600b81526020017f3230207374726169676874000000000000000000000000000000000000000000815250611c5b565b50613ce9601460286040805190810160405280600881526020017f323020626c61636b000000000000000000000000000000000000000000000000815250611c5b565b50613d2b6015806040805190810160405280600b81526020017f3231207374726169676874000000000000000000000000000000000000000000815250611c5b565b50613d6e601560276040805190810160405280600681526020017f3231207265640000000000000000000000000000000000000000000000000000815250611c5b565b50613db06016806040805190810160405280600b81526020017f3232207374726169676874000000000000000000000000000000000000000000815250611c5b565b50613df3601660286040805190810160405280600881526020017f323220626c61636b000000000000000000000000000000000000000000000000815250611c5b565b50613e356017806040805190810160405280600b81526020017f3233207374726169676874000000000000000000000000000000000000000000815250611c5b565b50613e78601760276040805190810160405280600681526020017f3233207265640000000000000000000000000000000000000000000000000000815250611c5b565b50613eba6018806040805190810160405280600b81526020017f3234207374726169676874000000000000000000000000000000000000000000815250611c5b565b50613efd601860286040805190810160405280600881526020017f323420626c61636b000000000000000000000000000000000000000000000000815250611c5b565b50613f3f6019806040805190810160405280600b81526020017f3235207374726169676874000000000000000000000000000000000000000000815250611c5b565b50613f82601960276040805190810160405280600681526020017f3235207265640000000000000000000000000000000000000000000000000000815250611c5b565b50613fc4601a806040805190810160405280600b81526020017f3236207374726169676874000000000000000000000000000000000000000000815250611c5b565b50614007601a60286040805190810160405280600881526020017f323620626c61636b000000000000000000000000000000000000000000000000815250611c5b565b50614049601b806040805190810160405280600b81526020017f3237207374726169676874000000000000000000000000000000000000000000815250611c5b565b5061408c601b60276040805190810160405280600681526020017f3237207265640000000000000000000000000000000000000000000000000000815250611c5b565b506140ce601c806040805190810160405280600b81526020017f3238207374726169676874000000000000000000000000000000000000000000815250611c5b565b50614111601c60286040805190810160405280600881526020017f323820626c61636b000000000000000000000000000000000000000000000000815250611c5b565b50614153601d806040805190810160405280600b81526020017f3239207374726169676874000000000000000000000000000000000000000000815250611c5b565b50614196601d60276040805190810160405280600681526020017f3239207265640000000000000000000000000000000000000000000000000000815250611c5b565b506141d8601e806040805190810160405280600b81526020017f3330207374726169676874000000000000000000000000000000000000000000815250611c5b565b5061421b601e60286040805190810160405280600881526020017f333020626c61636b000000000000000000000000000000000000000000000000815250611c5b565b5061425d601f806040805190810160405280600b81526020017f3331207374726169676874000000000000000000000000000000000000000000815250611c5b565b506142a0601f60276040805190810160405280600681526020017f3331207265640000000000000000000000000000000000000000000000000000815250611c5b565b506142e26020806040805190810160405280600b81526020017f3332207374726169676874000000000000000000000000000000000000000000815250611c5b565b50614325602060286040805190810160405280600881526020017f333220626c61636b000000000000000000000000000000000000000000000000815250611c5b565b506143676021806040805190810160405280600b81526020017f3333207374726169676874000000000000000000000000000000000000000000815250611c5b565b506143aa602160276040805190810160405280600681526020017f3333207265640000000000000000000000000000000000000000000000000000815250611c5b565b506143ec6022806040805190810160405280600b81526020017f3334207374726169676874000000000000000000000000000000000000000000815250611c5b565b5061442f602260286040805190810160405280600881526020017f333420626c61636b000000000000000000000000000000000000000000000000815250611c5b565b506144716023806040805190810160405280600b81526020017f3335207374726169676874000000000000000000000000000000000000000000815250611c5b565b506144b4602360276040805190810160405280600681526020017f3335207265640000000000000000000000000000000000000000000000000000815250611c5b565b506144f66024806040805190810160405280600b81526020017f3336207374726169676874000000000000000000000000000000000000000000815250611c5b565b50614539602460286040805190810160405280600881526020017f333620626c61636b000000000000000000000000000000000000000000000000815250611c5b565b5061457b6025806040805190810160405280600a81526020017f3020737472616967687400000000000000000000000000000000000000000000815250611c5b565b506145bd6026806040805190810160405280600b81526020017f3030207374726169676874000000000000000000000000000000000000000000815250611c5b565b506001905090565b6000805b6145d28461494f565b600190049050600183017fffffffffffffffffffffffffffffffffffffffffffffffffffffffffffffffff81151561460657fe5b067fffffffffffffffffffffffffffffffffffffffffffffffffffffffffffffffff0381101515614636576145c9565b600183018181151561464457fe5b0690508091505092915050565b600080600090505b600060069054906101000a900460ff1660ff168160ff161115156146985761468081614a54565b151561468b57600080fd5b8080600101915050614659565b600191505090565b60008060006006600701546006800154101561479c576006800154600660070154039150600060079054906101000a900473ffffffffffffffffffffffffffffffffffffffff1673ffffffffffffffffffffffffffffffffffffffff1663de6a3738836040518263ffffffff167c010000000000000000000000000000000000000000000000000000000002815260040180828152602001915050602060405180830381600087803b15801561475557600080fd5b505af1158015614769573d6000803e3d6000fd5b505050506040513d602081101561477f57600080fd5b8101908080519060200190929190505050151561479b57600080fd5b5b60066007015460068001541115614889576006600701546006800154039050600060079054906101000a900473ffffffffffffffffffffffffffffffffffffffff1673ffffffffffffffffffffffffffffffffffffffff166386abc1ae826040518263ffffffff167c01000000000000000000000000000000000000000000000000000000000281526004016020604051808303818588803b15801561484157600080fd5b505af1158015614855573d6000803e3d6000fd5b50505050506040513d602081101561486c57600080fd5b8101908080519060200190929190505050151561488857600080fd5b5b60019250505090565b600080600260149054906101000a900460ff161515156148b157600080fd5b600160009054906101000a900473ffffffffffffffffffffffffffffffffffffffff1673ffffffffffffffffffffffffffffffffffffffff163373ffffffffffffffffffffffffffffffffffffffff1614151561490d57600080fd5b601060008460ff1660ff1681526020019081526020016000209050828160000160006101000a81548160ff021916908360ff1602179055506001915050919050565b6000806060600143034091504441428487604051602001808681526020018573ffffffffffffffffffffffffffffffffffffffff1673ffffffffffffffffffffffffffffffffffffffff166c0100000000000000000000000002815260140184815260200183600019166000191681526020018260001916600019168152602001955050505050506040516020818303038152906040529050806040518082805190602001908083835b602083101515614a1e57805182526020820191506020810190506020830392506149f9565b6001836020036101000a038019825116818451168082178552505050505050905001915050604051809103902092505050919050565b600080600080600080600f60008860ff1660ff1681526020019081526020016000209450600093505b8460010154841015614c1857846002016000858152602001908152602001600020925060011515856003016000600660040160009054906101000a900460ff1660ff1660ff16815260200190815260200160002060009054906101000a900460ff1615151415614b5e578460000160019054906101000a900460ff1660ff168360010154029150826001015482019050614b3b8360000160009054906101000a900473ffffffffffffffffffffffffffffffffffffffff1682610bac565b1515614b4657600080fd5b81600660070160008282540192505081905550614b75565b826001015460068001600082825401925050819055505b6040805190810160405280600073ffffffffffffffffffffffffffffffffffffffff168152602001600081525085600201600086815260200190815260200160002060008201518160000160006101000a81548173ffffffffffffffffffffffffffffffffffffffff021916908373ffffffffffffffffffffffffffffffffffffffff160217905550602082015181600101559050508380600101945050614a7d565b600085600101819055506001955050505050509190505600a165627a7a72305820bc65da5e4d044b66b8f9d57228cebe40e8c28e681507d7ed87aad4529d8ab23e0029",
  "source": "pragma solidity ^0.4.2;\n\nimport \"./Casino.sol\";\nimport \"./RouletteDealer.sol\";\n\ncontract RouletteTable {\n\n    struct Bet {\n        uint8 id;\n        uint8 payout;\n        uint256 wagerCount;\n        mapping(uint256 => Wager) wagers;\n        mapping(uint8 => bool) outcome;\n    }\n\n    struct Bettor {\n        uint256 index;\n        address account;\n        uint256 balance;\n    }\n\n    struct Pocket {\n        uint8 id;\n        Bet[] bets;\n    }\n\n    struct Spin {\n        uint256 id;\n        uint256 bettingOpenedAt;\n        uint256 bettingClosedAt;\n        uint256 wheelSpunAt;\n        uint8 winner;\n        uint256 totalBet;\n        uint256 totalLost;\n        uint256 totalWon;\n    }\n\n    struct Wager {\n        address bettor;\n        uint256 amount;\n    }\n\n    uint256 constant private MAX_UINT256 = 2 ** 256 - 1;\n\n    bool private initializedBets;\n    bool private initializedCasino;\n    bool private initializedDealer;\n    bool private initializedRules;\n    bool private initializedPockets;\n    uint8 private lastWinner;\n    uint8 private totalUniqueBets;\n\n    address public casino;\n    address public creator;\n    address public dealer;\n    bool public initialized;\n    uint256 public bettorCount;\n    uint256 public spinCount;\n    uint256 public totalBettorSupply;\n    Spin public currentSpin_;\n\n    mapping(address => Bettor) public bettors;\n\n    mapping(uint8 => Bet) public bets;\n\n    mapping(uint8 => Pocket) public pockets;\n\n    mapping(uint256 => address) public bettorAccounts;\n\n    mapping(uint256 => Spin) public spins;\n\n    modifier notInitialized {\n        require(!initialized);\n        _;\n    }\n\n    modifier onlyCreator() {\n        require(msg.sender == creator);\n        _;\n    }\n\n    modifier onlyDealer() {\n        require(msg.sender == dealer);\n        _;\n    }\n\n    modifier onlyIfBettingClosed() {\n        require(currentSpin_.bettingOpenedAt != 0 && currentSpin_.bettingClosedAt != 0);\n        _;\n    }\n\n    modifier onlyIfBettingOpen() {\n        require(currentSpin_.bettingOpenedAt != 0 && currentSpin_.bettingClosedAt == 0);\n        _;\n    }\n\n    modifier onlyIfInitialized {\n        require(initialized);\n        _;\n    }\n\n    constructor() public {\n        creator = msg.sender;\n    }\n\n    function() public payable\n    {\n        if (msg.sender != casino) {\n            require(increaseBalance(msg.sender, msg.value));\n        }\n    }\n\n    function bettorOf(address _account) public view\n    returns (uint256 index, address account, uint256 balance) {\n        Bettor storage bettor = bettors[_account];\n        return (bettor.index, bettor.account, bettor.balance);\n    }\n\n    function currentSpin() public view\n    returns(uint256 id, uint256 bettingOpenedAt, uint256 bettingClosedAt, uint256 wheelSpunAt, uint8 winner, uint256 totalBet, uint256 totalLost, uint256 totalWon) {\n        return (currentSpin_.id, currentSpin_.bettingOpenedAt, currentSpin_.bettingClosedAt, currentSpin_.wheelSpunAt, currentSpin_.winner, currentSpin_.totalBet, currentSpin_.totalLost, currentSpin_.totalWon);\n    }\n\n    function addBet(uint8 _id, uint8 _payout, string) public\n    notInitialized\n    onlyCreator\n    returns (bool) {\n        totalUniqueBets++;\n        Bet storage bet = bets[_id];\n        bet.id = _id;\n        bet.payout = _payout;\n        return true;\n    }\n\n    function addRule(uint8 _wheelPocket, uint8 _bet, string) public\n    notInitialized\n    onlyCreator\n    returns (bool) {\n        pockets[_wheelPocket].bets.push(bets[_bet]);\n        bets[_bet].outcome[_wheelPocket] = true;\n        return true;\n    }\n\n    function addWheelPocket(uint8 _id) private\n    notInitialized\n    onlyCreator\n    returns (bool) {\n        Pocket storage pocket = pockets[_id];\n        pocket.id = _id;\n        return true;\n    }\n\n    function closeBetting() public\n    onlyIfInitialized\n    onlyDealer\n    onlyIfBettingOpen\n    returns (bool) {\n        currentSpin_.bettingClosedAt = block.number;\n        return true;\n    }\n\n    function initializeBets() public\n    onlyCreator\n    returns (bool) {\n        if (!initialized && !initializedBets) {\n            addBets();\n            initializedBets = true;\n            initialized = initializedCasino && initializedDealer && initializedPockets && initializedBets && initializedRules;\n        }\n        return initializedBets;\n    }\n\n    function initializeCasino(address _casino) public\n    onlyCreator\n    returns (bool) {\n        if (!initialized && !initializedCasino) {\n            casino = _casino;\n            initializedCasino = true;\n            initialized = initializedCasino && initializedDealer && initializedPockets && initializedBets && initializedRules;\n        }\n        return initializedCasino;\n    }\n\n    function initializeDealer(address _dealer) public\n    onlyCreator\n    returns (bool) {\n        if (!initialized && !initializedDealer) {\n            dealer = _dealer;\n            initializedDealer = true;\n            initialized = initializedCasino && initializedDealer && initializedPockets && initializedBets && initializedRules;\n        }\n        return initializedDealer;\n    }\n\n    function initializeRules() public\n    onlyCreator\n    returns (bool) {\n        if (!initialized && !initializedRules) {\n            addRules();\n            initializedRules = true;\n            initialized = initializedCasino && initializedDealer && initializedPockets && initializedBets && initializedRules;\n        }\n        return initializedRules;\n    }\n\n    function initializePockets() public\n    onlyCreator\n    returns (bool) {\n        if (!initialized && !initializedPockets) {\n            addWheelPockets();\n            initializedPockets = true;\n            initialized = initializedCasino && initializedDealer && initializedPockets && initializedBets && initializedRules;\n        }\n        return initializedPockets;\n    }\n\n    function nudgeDealer() public\n    returns (bool) {\n        require(RouletteDealer(dealer).work());\n        return true;\n    }\n\n    function openBetting() public\n    onlyIfInitialized\n    onlyDealer\n    returns (bool) {\n        uint256 spinIndex = spinCount++;\n        spins[spinIndex] = Spin(spinIndex, block.number, 0, 0, 0, 0, 0, 0);\n        currentSpin_ = spins[spinIndex];\n        return true;\n    }\n\n    function liquidate() public\n    onlyIfInitialized\n    returns (bool) {\n        Bettor storage bettor = bettors[msg.sender];\n        uint256 fundsToLiquidate = bettor.balance;\n        require(decreaseBalance(bettor.account, fundsToLiquidate));\n        require(msg.sender.send(fundsToLiquidate));\n        return true;\n    }\n\n    function pullBets() public\n    onlyIfInitialized\n    onlyIfBettingOpen\n    returns (bool) {\n        for (uint8 betID = 1; betID <= totalUniqueBets; betID ++) {\n            Bet storage bet = bets[betID];\n            for (uint256 wagerIndex = 0; wagerIndex < bet.wagerCount; wagerIndex ++) {\n                Wager storage wager = bet.wagers[wagerIndex];\n                if (wager.bettor == msg.sender) {\n                    require(increaseBalance(msg.sender, wager.amount));\n                    currentSpin_.totalBet -= wager.amount;\n                    wager.amount = 0;\n                }\n            }\n        }\n        return true;\n    }\n\n    function spinWheel(uint256 _entropy) public\n    onlyIfInitialized\n    onlyDealer\n    returns (uint8) {\n        spinCount ++;\n        return uint8(randomRange(bytes32(spinCount + _entropy), 37)) + 1;\n    }\n\n    function markWinner(uint8 winner) public\n    onlyIfInitialized\n    onlyDealer\n    onlyIfBettingClosed\n    returns (bool) {\n        require(winner >= 1 && winner <= 38);\n        currentSpin_.winner = winner;\n        currentSpin_.wheelSpunAt = block.number;\n        require(processBets());\n        require(processRevenue());\n        return true;\n    }\n\n    function wager(uint8 _betID, uint256 _amount) public\n    onlyIfInitialized\n    onlyIfBettingOpen\n    returns (bool) {\n        require(currentSpin_.bettingOpenedAt != 0);\n        require(currentSpin_.bettingClosedAt == 0);\n        require(decreaseBalance(msg.sender, _amount));\n        Bet storage bet = bets[_betID];\n        bet.wagers[bet.wagerCount++] = Wager(msg.sender, _amount);\n        currentSpin_.totalBet += _amount;\n        return true;\n    }\n\n    function withdraw(uint256 _amount) public\n    onlyIfInitialized\n    returns (bool) {\n        Bettor storage bettor = bettors[msg.sender];\n        require(bettor.balance >= _amount);\n        require(decreaseBalance(bettor.account, _amount));\n        require(msg.sender.send(_amount));\n        return true;\n    }\n\n    function random(bytes32 _entropy) private view\n    returns (bytes32) {\n        bytes32 blockHash = blockhash(block.number - 1);\n        bytes memory arguments = abi.encodePacked(block.difficulty, block.coinbase, now, blockHash, _entropy);\n        return keccak256(arguments);\n    }\n\n    function randomRange(bytes32 _entropy, uint256 _max) private view\n    returns (uint256) {\n        uint256 rand;\n        do {\n            rand = uint256(random(_entropy));\n        }\n        while (rand >= (MAX_UINT256 - MAX_UINT256 % (_max + 1)));\n        return rand %= (_max + 1);\n    }\n\n    function addBets() private\n    returns (bool) {\n        addBet(1, 35, \"1\");\n        addBet(2, 35, \"2\");\n        addBet(3, 35, \"3\");\n        addBet(4, 35, \"4\");\n        addBet(5, 35, \"5\");\n        addBet(6, 35, \"6\");\n        addBet(7, 35, \"7\");\n        addBet(8, 35, \"8\");\n        addBet(9, 35, \"9\");\n        addBet(10, 35, \"10\");\n        addBet(11, 35, \"11\");\n        addBet(12, 35, \"12\");\n        addBet(13, 35, \"13\");\n        addBet(14, 35, \"14\");\n        addBet(15, 35, \"15\");\n        addBet(16, 35, \"16\");\n        addBet(17, 35, \"17\");\n        addBet(18, 35, \"18\");\n        addBet(19, 35, \"19\");\n        addBet(20, 35, \"20\");\n        addBet(21, 35, \"21\");\n        addBet(22, 35, \"22\");\n        addBet(23, 35, \"23\");\n        addBet(24, 35, \"24\");\n        addBet(25, 35, \"25\");\n        addBet(26, 35, \"26\");\n        addBet(27, 35, \"27\");\n        addBet(28, 35, \"28\");\n        addBet(29, 35, \"29\");\n        addBet(30, 35, \"30\");\n        addBet(31, 35, \"31\");\n        addBet(32, 35, \"32\");\n        addBet(33, 35, \"33\");\n        addBet(34, 35, \"34\");\n        addBet(35, 35, \"35\");\n        addBet(36, 35, \"36\");\n        addBet(37, 35, \"0\");\n        addBet(38, 35, \"00\");\n        addBet(39, 1, \"red\");\n        addBet(40, 1, \"black\");\n        return true;\n    }\n\n    function addRules() private\n    returns (bool) {\n        addRule(1, 1, \"1 straight\");\n        addRule(1, 39, \"1 red\");\n        addRule(2, 2, \"2 straight\");\n        addRule(2, 40, \"2 black\");\n        addRule(3, 3, \"3 straight\");\n        addRule(3, 39, \"3 red\");\n        addRule(4, 4, \"4 straight\");\n        addRule(4, 40, \"4 black\");\n        addRule(5, 5, \"5 straight\");\n        addRule(5, 39, \"5 red\");\n        addRule(6, 6, \"6 straight\");\n        addRule(6, 40, \"6 black\");\n        addRule(7, 7, \"7 straight\");\n        addRule(7, 39, \"7 red\");\n        addRule(8, 8, \"8 straight\");\n        addRule(8, 40, \"8 black\");\n        addRule(9, 9, \"9 straight\");\n        addRule(9, 39, \"9 red\");\n        addRule(10, 10, \"10 straight\");\n        addRule(10, 40, \"10 black\");\n        addRule(11, 11, \"11 straight\");\n        addRule(11, 39, \"11 red\");\n        addRule(12, 12, \"12 straight\");\n        addRule(12, 40, \"12 black\");\n        addRule(13, 13, \"13 straight\");\n        addRule(13, 39, \"13 red\");\n        addRule(14, 14, \"14 straight\");\n        addRule(14, 40, \"14 black\");\n        addRule(15, 15, \"15 straight\");\n        addRule(15, 39, \"15 red\");\n        addRule(16, 16, \"16 straight\");\n        addRule(16, 40, \"16 black\");\n        addRule(17, 17, \"17 straight\");\n        addRule(17, 39, \"17 red\");\n        addRule(18, 18, \"18 straight\");\n        addRule(18, 40, \"18 black\");\n        addRule(19, 19, \"19 straight\");\n        addRule(19, 39, \"19 red\");\n        addRule(20, 20, \"20 straight\");\n        addRule(20, 40, \"20 black\");\n        addRule(21, 21, \"21 straight\");\n        addRule(21, 39, \"21 red\");\n        addRule(22, 22, \"22 straight\");\n        addRule(22, 40, \"22 black\");\n        addRule(23, 23, \"23 straight\");\n        addRule(23, 39, \"23 red\");\n        addRule(24, 24, \"24 straight\");\n        addRule(24, 40, \"24 black\");\n        addRule(25, 25, \"25 straight\");\n        addRule(25, 39, \"25 red\");\n        addRule(26, 26, \"26 straight\");\n        addRule(26, 40, \"26 black\");\n        addRule(27, 27, \"27 straight\");\n        addRule(27, 39, \"27 red\");\n        addRule(28, 28, \"28 straight\");\n        addRule(28, 40, \"28 black\");\n        addRule(29, 29, \"29 straight\");\n        addRule(29, 39, \"29 red\");\n        addRule(30, 30, \"30 straight\");\n        addRule(30, 40, \"30 black\");\n        addRule(31, 31, \"31 straight\");\n        addRule(31, 39, \"31 red\");\n        addRule(32, 32, \"32 straight\");\n        addRule(32, 40, \"32 black\");\n        addRule(33, 33, \"33 straight\");\n        addRule(33, 39, \"33 red\");\n        addRule(34, 34, \"34 straight\");\n        addRule(34, 40, \"34 black\");\n        addRule(35, 35, \"35 straight\");\n        addRule(35, 39, \"35 red\");\n        addRule(36, 36, \"36 straight\");\n        addRule(36, 40, \"36 black\");\n        addRule(37, 37, \"0 straight\");\n        addRule(38, 38, \"00 straight\");\n        return true;\n    }\n\n    function addWheelPockets() private\n    returns (bool) {\n        addWheelPocket(1);\n        addWheelPocket(2);\n        addWheelPocket(3);\n        addWheelPocket(4);\n        addWheelPocket(5);\n        addWheelPocket(6);\n        addWheelPocket(7);\n        addWheelPocket(8);\n        addWheelPocket(9);\n        addWheelPocket(10);\n        addWheelPocket(11);\n        addWheelPocket(12);\n        addWheelPocket(13);\n        addWheelPocket(14);\n        addWheelPocket(15);\n        addWheelPocket(16);\n        addWheelPocket(17);\n        addWheelPocket(18);\n        addWheelPocket(19);\n        addWheelPocket(20);\n        addWheelPocket(21);\n        addWheelPocket(22);\n        addWheelPocket(23);\n        addWheelPocket(24);\n        addWheelPocket(25);\n        addWheelPocket(26);\n        addWheelPocket(27);\n        addWheelPocket(28);\n        addWheelPocket(29);\n        addWheelPocket(30);\n        addWheelPocket(31);\n        addWheelPocket(32);\n        addWheelPocket(33);\n        addWheelPocket(34);\n        addWheelPocket(35);\n        addWheelPocket(36);\n        addWheelPocket(37);\n        addWheelPocket(38);\n        return true;\n    }\n\n    function decreaseBalance(address _account, uint256 _amount) private\n    returns (bool) {\n        if (_amount == 0) return true;\n        totalBettorSupply -= _amount;\n        Bettor storage bettor = bettors[_account];\n        bettor.account = _account;\n        bettor.balance -= _amount;\n        if (bettor.balance == 0) {\n            uint256 lastIndex = --bettorCount;\n            if (bettor.index != lastIndex) {\n                Bettor storage lastBettor = bettors[bettorAccounts[lastIndex]];\n                lastBettor.index = bettor.index;\n                bettorAccounts[bettor.index] = _account;\n            }\n            bettorAccounts[lastIndex] = address(0);\n            bettors[_account] = Bettor(0, address(0), 0);\n        }\n        return true;\n    }\n\n    function increaseBalance(address _account, uint256 _amount) private\n    returns (bool) {\n        if (_amount == 0) return true;\n        totalBettorSupply += _amount;\n        Bettor storage bettor = bettors[_account];\n        bettor.account = _account;\n        bettor.balance += _amount;\n        if (bettor.balance == _amount) {\n            bettor.index = bettorCount++;\n            bettorAccounts[bettor.index] = _account;\n        }\n        return true;\n    }\n\n    function processBet(uint8 _betID) private\n    returns (bool) {\n        Bet storage bet = bets[_betID];\n        for (uint256 index = 0; index < bet.wagerCount; index ++) {\n            Wager storage betWager = bet.wagers[index];\n            if (bet.outcome[currentSpin_.winner] == true) {\n                uint256 winnings = betWager.amount * bet.payout;\n                uint256 payout = winnings + betWager.amount;\n                require(increaseBalance(betWager.bettor, payout));\n                currentSpin_.totalWon += winnings;\n            }\n            else {\n                currentSpin_.totalLost += betWager.amount;\n            }\n            bet.wagers[index] = Wager(address(0), 0);\n        }\n        bet.wagerCount = 0;\n        return true;\n    }\n\n    function processBets() private\n    returns (bool) {\n        for (uint8 betID = 0; betID <= totalUniqueBets; betID ++) {\n            require(processBet(betID));\n        }\n        return true;\n    }\n\n    function processRevenue() private\n    returns (bool) {\n        if (currentSpin_.totalLost < currentSpin_.totalWon) {\n            uint256 loss = currentSpin_.totalWon - currentSpin_.totalLost;\n            require(Casino(casino).processLoss(loss));\n        }\n        if (currentSpin_.totalLost > currentSpin_.totalWon) {\n            uint256 profit = currentSpin_.totalLost - currentSpin_.totalWon;\n            require(Casino(casino).processProfit.value(profit)());\n        }\n        return true;\n    }\n}",
  "sourcePath": "/app/contracts/RouletteTable.sol",
  "compiler": {
    "name": "solc",
    "version": "0.4.24+commit.e67f0147.Emscripten.clang"
  },
  "schemaVersion": "2.0.1",
  "updatedAt": "2018-08-17T23:43:29.992Z"
}